:020000040000FA
:10000000485000206D0200008102000083020000C1
:10001000850200008502000085020000000000004B
:100020000000000000000000000000008502000049
:10003000850200000000000085020000850200002B
:100040008502000085020000850200008502000094
:100050008502000085020000850200008502000084
:100060008502000085020000850200008502000074
:100070008502000085020000850200008502000064
:100080008502000085020000850200008502000054
:100090008502000085020000850200008502000044
:1000A0008502000085020000850200008502000034
:1000B0008502000085020000850200008502000024
:1000C0008502000085020000850200008502000014
:1000D0008502000085020000850200008502000004
:1000E000850200008502000000000000850200007B
:1000F00085020000850200008502000085020000E4
:1001000085020000850200008502000085020000D3
:1001100000000000000000008502000085020000D1
:1001200085020000850200008502000085020000B3
:1001300085020000850200008502000085020000A3
:1001400000000000000000000000000000000000AF
:100150008502000085020000850200008502000083
:10016000000000000000000000000000000000008F
:10017000000000000000000000000000000000007F
:10018000000000000000000000000000000000006F
:10019000000000000000000000000000000000005F
:1001A000000000000000000000000000000000004F
:1001B0008502000085020000850200008502000023
:1001C0008502000085020000850200008502000013
:1001D0008502000085020000850200008502000003
:1001E000850200008502000085020000000000007A
:1001F000000000008502000085020000850200006A
:1002000085020000850200000000000000000000E0
:1002100085020000850200008502000085020000C2
:1002200085020000850200008502000085020000B2
:1002300085020000850200008502000085020000A2
:100240008502000085020000850200008502000092
:100250008502000085020000850200008502000082
:100260008502000085020000850200004EF68850DD
:10027000CEF20000016841F47001016000F004B8A2
:10028000FEE7FEE7FEE7000000F002F800F05CF891
:100290000AA090E8000C82448344AAF10107DA45E1
:1002A00001D100F051F8AFF2090EBAE80F0013F0D7
:1002B000010F18BFFB1A43F0010318479801020011
:1002C000B80102000A444FF0000C10F8013B13F093
:1002D000070408BF10F8014B1D1108BF10F8015B9F
:1002E000641E05D010F8016B641E01F8016BF9D192
:1002F00013F0080F1EBF10F8014BAD1C0C1B09D1E9
:100300006D1E58BF01F801CBFAD505E014F8016B5A
:1003100001F8016B6D1EF9D59142D6D370470000EC
:100320000023002400250026103A28BF78C1FBD8FE
:10033000520728BF30C148BF0B6070471FB51CF083
:100340006EFD1FBD10B510BD00F04DF91146FFF751
:10035000F5FF19F0EBFC00F06BF903B4FFF7F2FFC7
:1003600003BC00F06FF90000EFF3108072B6704725
:10037000EFF310807047EFF3108062B6704730BF24
:10038000704780F311887047EFF3118070470000C9
:100390000138FDD17047000002480349014A034B70
:1003A00070470000484E002048500020484E002072
:1003B00070B50446051F00F0FDF80068002C14BF5E
:1003C000446870BD002C18BFAC423CBF2046646836
:1003D000F8D301680A18AA4218BF456003D12A68F9
:1003E00005461144016028684119A1421CBF6C6098
:1003F00070BD6168696021680844286070BD0000B4
:100400000649074A0868504343F23902104408601D
:10041000C0F30E407047014908607047700F00201C
:100420006D4EC641032A40F2308010F0030C00F0FC
:10043000158011F8013BBCF1020F624498BF11F81E
:1004400001CB00F8013B38BF11F8013BA2F10402D7
:1004500098BF00F801CB38BF00F8013B11F003034F
:1004600000F02980083AC0F0088051F8043B083AAF
:1004700051F804CBA0E80810F5E7121D5CBF51F855
:10048000043B40F8043BAFF30080D20724BF11F8CF
:10049000013B11F801CB48BF11F8012B24BF00F834
:1004A000013B00F801CB48BF00F8012B704701B5B4
:1004B000FFF7B8FF01BD10B5203AC0F00B80B1E8DE
:1004C0001850203AA0E81850B1E81850A0E8185089
:1004D000BFF4F5AF5FEA027C24BFB1E81850A0E892
:1004E000185044BF18C918C0BDE810405FEA827CAC
:1004F00024BF51F8043B40F8043B08BF7047D207C3
:1005000028BF31F8023B48BF11F8012B28BF20F863
:10051000023B48BF00F8012B70474FF0000204294E
:10052000C0F0128010F0030C00F01B80CCF1040C22
:10053000BCF1020F18BF00F8012BA8BF20F8022B56
:10054000A1EB0C0100F00DB85FEAC17C24BF00F8FC
:10055000012B00F8012B48BF00F8012B70474FF02A
:10056000000200B5134694469646203922BFA0E803
:100570000C50A0E80C50B1F12001BFF4F7AF09070F
:1005800028BFA0E80C5048BF0CC05DF804EB890000
:1005900028BF40F8042B08BF704748BF20F8022B43
:1005A00011F0804F18BF00F8012B7047704770475B
:1005B0007047000000487047F04D002010B500F073
:1005C0000DF8006810BD10B5044600F007F804608F
:1005D00010BD000000487047E84D002000487047FB
:1005E000E84D002070477546FFF7F4FFAE46050062
:1005F0006946534620F00700854618B020B5FFF73E
:10060000CBFEBDE820404FF000064FF000074FF052
:1006100000084FF0000B21F00701AC46ACE8C00920
:10062000ACE8C009ACE8C009ACE8C0098D46704729
:1006300010B50446AFF300802046BDE81040FFF738
:100640008CBE000001491820ABBEFEE72600020068
:1006500001228A40C260704730B5034632B1DC687F
:100660004FF001158D4004EA05000FE05C6801259C
:100670008D4045F4803504EA050000F480342CB147
:1006800040F470204FF480348C40A04330BD10B54E
:100690000A0C120401F00F040123A3401A43836AD9
:1006A0001A43826210BD30B5890044690F258D4020
:1006B000AC4302F00F058D402C434461056A0F24C2
:1006C0008C4025EA040403F003058D402C430462AA
:1006D00030BD10B503464C0140342344002002E0F5
:1006E0009C6810C2401CDC6804F480740CB90828B3
:1006F000F6D310BD026801238B401A430260704795
:1007000070B50C46650140352844920005680F26F7
:100710009640B54303F00F06964035430560866961
:100720000F25954026EA0505C3F303269640354379
:10073000856146680F25954026EA0505C3F3031633
:1007400096403543456003F4702575B141690F2526
:100750009540A943C3F30245954029434161066989
:10076000012595402E43066104E006690125954068
:10077000AE43066170BD000010B5104813F07AF862
:1007800000BF0E4813F090F80028FAD00C4813F080
:1007900071F808210B4805F0BBFC00231A461946E6
:1007A0000948FFF780FF6023002211460648FFF743
:1007B000A7FF00210448FFF79DFF10BD003800F09F
:1007C000040800F0004002400080034003B589B0F7
:1007D00000200790069006900AE006990998415C6F
:1007E00007980844C0B207900698401CC0B2069013
:1007F0000A98401E06998842EFDCDDE909010844A9
:1008000010F8011C0798814201D00BB000BD099877
:100810000078AA2803D109984078AF2800D0F4E7DF
:1008200009988078012800D100BF099880780228B3
:100830006BD109980079012833D1FE4908704870BE
:100840008870C8700871487100200221FA4A034676
:10085000B6EE000ACDE90021029032224FF47A71FF
:10086000F64802F0EEF900200421F34A0346B6EE02
:10087000000ACDE90021029032224FF47A71F0484B
:1008800002F0DFF900200821EB4A0346B6EE000A29
:10089000CDE90021029032224FF47A71E94802F04A
:1008A000D0F909980079A1282FD10320E6490870D2
:1008B00000200221E04A0346B6EE000ACDE90021FD
:1008C000029032224FF47A71DC4802F0BAF900202B
:1008D0000421D94A0346B6EE000ACDE90021029070
:1008E00032224FF47A71D64802F0ABF90020082189
:1008F000D14A0346B6EE000ACDE900210290322229
:100900004FF47A71CF4802F09CF90998807810284A
:100910007DD109980079000200B20999497908430C
:1009200001901BF0AEFE9FEDC90B53EC102BCDE9EF
:1009300002019DED020B51EC100B1BF009FFCDE9FC
:1009400004019DED040B51EC100B1BF0F7FBC149AA
:10095000C1F81C0209988079000200B20999C9798E
:10096000084301901BF08DFE9FEDB80B53EC102B4C
:10097000CDE902019DED020B51EC100B1BF0E8FEDE
:10098000CDE904019DED040B51EC100B1BF0D6FBDF
:10099000B049C1F820020998007A000200B2099912
:1009A000497A084301901BF06CFE9FEDAB0B53ECB2
:1009B000102BCDE902019DED020B51EC100B1BF049
:1009C000C7FECDE904019DED040B51EC100B1BF0AB
:1009D000B5FBA049C1F824020998807A000200B250
:1009E0000999C97A084301901BF04BFE9FED970BC4
:1009F00053EC102BCDE902019DED020B51EC100BD5
:100A00001BF0A6FECDE904019DED040B00E0B1E072
:100A100051EC100B1BF092FB8E49C1F8CC000998E9
:100A2000007B000200B20999497B084301901BF04A
:100A300028FE9FED860B53EC102BCDE902019DEDB6
:100A4000020B51EC100B1BF083FECDE904019DED70
:100A5000040B51EC100B1BF071FB7E49C1F8D00068
:100A60000998807B000200B20999C97B0843019074
:100A70001BF007FE9FED780B53EC102BCDE9020124
:100A80009DED020B51EC100B1BF062FECDE9040151
:100A90009DED040B51EC100B1BF050FB6D49C1F8A0
:100AA000D4000998007C000200B20999497C0843EF
:100AB00001901BF0E6FD9FED650B53EC102BCDE98B
:100AC00002019DED020B51EC100B1BF041FECDE934
:100AD00004019DED040B51EC100B1BF02FFB5D4945
:100AE000C1F86C030998807C000200B20999C97CA6
:100AF000084301901BF0C5FD9FED540B53EC102BE8
:100B0000CDE902019DED020B51EC100B1BF020FE14
:100B1000CDE904019DED040B51EC100B1BF00EFB15
:100B20004C49C1F870030998007D000200B2099990
:100B3000497D084301901BF0A4FD9FED470B53EC4A
:100B4000102BCDE902019DED020B51EC100B1BF0B7
:100B5000FFFDCDE904019DED040B51EC100B1BF0E2
:100B6000EDFA3C49C1F8740309988078059007991B
:100B700000F0EAFD0998807811285AD10998007987
:100B8000000200B209994979084301901BF079FDF0
:100B90009FED2E0B53EC102BCDE902019DED020BC6
:100BA00051EC100B1BF0D4FDCDE904019DED040BBD
:100BB00051EC100B1BF0C2FA2649C1F874010998D8
:100BC0008079000200B20999C979084301901BF0AD
:100BD00058FD9FED1E0B53EC102BCDE902019DED4E
:100BE000020B51EC100B1BF0B3FDCDE904019DEDA0
:100BF000040B51EC100B1BF0A1FA1649C1F8780157
:100C00000998007A000200B20999497A08430190D4
:100C10001BF037FD9FED100B53EC102BCDE90201BB
:100C20009DED020B51EC100B1BF092FDCDE9040180
:100C300016E0E7E0B6060020005002409C140020B9
:100C4000B0140020C4140020D3040020FCA9F1D269
:100C50004D62503FD81B00207B14AE47E17A843FA1
:100C60009DED040B51EC100B1BF068FAFE49C1F826
:100C70007C010998807A000200B20999C97A084378
:100C800001901BF0FEFC1FED0F0B53EC102BCDE978
:100C900002019DED020B51EC100B1BF059FDCDE94B
:100CA00004019DED040B51EC100B1BF047FAEE49CB
:100CB00048620998007B000200B20999497B084309
:100CC00001901BF0DEFC1FED1F0B53EC102BCDE948
:100CD00002019DED020B51EC100B1BF039FDCDE92B
:100CE00004019DED040B51EC100B1BF027FADE49BB
:100CF00088620998807B000200B20999C97B084389
:100D000001901BF0BEFC1FED2C0B53EC102BCDE91A
:100D100002019DED020B51EC100B1BF019FDCDE90A
:100D200004019DED040B51EC100B1BF007FACE49AA
:100D3000C8620998007C000200B20999497C084306
:100D400001901BF09EFC1FED3F0B53EC102BCDE9E7
:100D500002019DED020B51EC100B1BF0F9FCCDE9EB
:100D600004019DED040B51EC100B1BF0E7F9BE499B
:100D7000C1F8C4020998807C000200B20999C97CBC
:100D8000084301901BF07DFC1FED500B53EC102B22
:100D9000CDE902019DED020B51EC100B1BF0D8FCCC
:100DA000CDE904019DED040B51EC100B1BF0C6F9CD
:100DB000AD49C1F8C8020998007D000200B2099946
:100DC000497D084301901BF05CFC1FED5D0B53EC6B
:100DD000102BCDE902019DED020B51EC100B1BF025
:100DE000B7FCCDE904019DED040B51EC100B1BF099
:100DF000A5F99D49C1F8CC0209988078059007991A
:100E000000F0A2FC0998807812287DD10998007919
:100E1000000200B209994979084301901BF031FCA6
:100E20001FED760B53EC102BCDE902019DED020B6B
:100E300051EC100B1BF08CFCCDE904019DED040B73
:100E400051EC100B1BF07AF98749C1F8BC040998E2
:100E50008079000200B20999C979084301901BF01A
:100E600010FC1FED860B53EC102BCDE902019DED1C
:100E7000020B51EC100B1BF06BFCCDE904019DED56
:100E8000040B51EC100B1BF059F97749C1F8C00461
:100E90000998007A000200B20999497A0843019042
:100EA0001BF0EFFB1FED940B53EC102BCDE902016F
:100EB0009DED020B51EC100B1BF04AFCCDE9040137
:100EC0009DED040B51EC100B1BF038F96649C1F88D
:100ED000C4040998807A000200B20999C97A0843CB
:100EE00001901BF0CEFB1FEDA70B53EC102BCDE9AF
:100EF00002019DED020B51EC100B1BF029FCCDE91A
:100F000004019DED040B00E0CCE051EC100B1BF054
:100F100015F95549C1F814040998007B000200B284
:100F20000999497B084301901BF0ABFB1FEDB90BFE
:100F300053EC102BCDE902019DED020B51EC100B8F
:100F40001BF006FCCDE904019DED040B51EC100BE8
:100F50001BF0F4F84449C1F818040998807B00029A
:100F600000B20999C97B084301901BF08AFB1FED71
:100F7000C60B53EC102BCDE902019DED020B51EC99
:100F8000100B1BF0E5FBCDE904019DED040B51ECCA
:100F9000100B1BF0D3F83449C1F81C040998007CED
:100FA000000200B20999497C084301901BF069FBDB
:100FB0001FEDDA0B53EC102BCDE902019DED020B76
:100FC00051EC100B1BF0C4FBCDE904019DED040BAB
:100FD00051EC100B1BF0B2F82349C1F85C070998DB
:100FE000807C000200B20999C97C084301901BF083
:100FF00048FB1FEDEA0B53EC102BCDE902019DEDF0
:10100000020B51EC100B1BF0A3FBCDE904019DED8D
:10101000040B51EC100B1BF091F81349C1F8600759
:101020000998007D000200B20999497D08430190AA
:101030001BF027FB1FEDF80B53EC102BCDE9020141
:101040009DED020B51EC100B1BF082FBCDE904016E
:101050009DED040B51EC100B1BF070F80249C1F828
:10106000640701F5E76001E0D81B002090ED090A54
:10107000A0F5A87080ED090A00F5A87090ED0A0AA5
:10108000A0F5A87080ED0A0A00F5A87090ED0B0A93
:10109000A0F5A87080ED0B0A099880780590079953
:1010A00000F052FB0998807813287DD109980079C7
:1010B000000200B209994979084301901BF0E1FA56
:1010C0009FEDFE0B53EC102BCDE902019DED020BC1
:1010D00051EC100B1BF03CFBCDE904019DED040B22
:1010E00051EC100B1BF02AF8F649C1F8B406099828
:1010F0008079000200B20999C979084301901BF078
:10110000C0FA9FEDEE0B53EC102BCDE902019DEDE3
:10111000020B51EC100B1BF01BFBCDE904019DED04
:10112000040B51EC100B1BF009F8E649C1F8B806A6
:101130000998007A000200B20999497A084301909F
:101140001BF09FFA9FEDE00B53EC102BCDE9020151
:101150009DED020B51EC100B1BF0FAFACDE90401E6
:101160009DED040B51EC100B1AF0E8FFD549C1F8C6
:10117000BC060998807A000200B20999C97A08432E
:1011800001901BF07EFA9FEDCD0B53EC102BCDE9B7
:1011900002019DED020B51EC100B1BF0D9FACDE9C9
:1011A00004019DED040B00E066E051EC100B1AF019
:1011B000C5FFC449C1F804080998007B000200B2C9
:1011C0000999497B084301901BF05BFA9FEDBB0B2B
:1011D00053EC102BCDE902019DED020B51EC100BED
:1011E0001BF0B6FACDE904019DED040B51EC100B98
:1011F0001AF0A4FFB349C1F808080998807B0002DF
:1012000000B20999C97B084301901BF03AFA9FED9F
:10121000AE0B53EC102BCDE902019DED020B51EC0E
:10122000100B1BF095FACDE904019DED040B51EC78
:10123000100B1AF083FFA349C1F80C0801F5D26026
:1012400090ED090AA0F5A87080ED090A00F5A870D4
:1012500090ED0A0AA0F5A87080ED0A0A00F5A870C2
:1012600090ED0B0AA0F5A87080ED0B0A0998807824
:101270000590079900F068FA0998807814287DD1C4
:1012800009980079000200B2099949790843019050
:101290001BF0F7F99FED890B53EC102BCDE9020100
:1012A0009DED020B51EC100B1BF052FACDE904013D
:1012B0009DED040B51EC100B1AF040FF8149C1F871
:1012C000FC0909988079000200B20999C97908439C
:1012D00001901BF0D6F99FED790B53EC102BCDE963
:1012E00002019DED020B51EC100B1BF031FACDE920
:1012F00004019DED040B51EC100B1AF01FFF714916
:10130000C1F8000A0998007A000200B20999497AE6
:10131000084301901BF0B5F99FED6B0B53EC102BBC
:10132000CDE902019DED020B51EC100B1BF010FA00
:10133000CDE904019DED040B51EC100B1AF0FEFEFB
:101340006049C1F8040A0998807A000200B209993C
:10135000C97A084301901BF094F99FED580B53ECA8
:10136000102BCDE902019DED020B51EC100B1BF08F
:10137000EFF9CDE904019DED040B00E020E151EC13
:10138000100B1AF0DBFE4F49C1F8A40A0998007B44
:10139000000200B20999497B084301901BF071F9E2
:1013A0009FED460B53EC102BCDE902019DED020B96
:1013B00051EC100B1BF0CCF9CDE904019DED040BB1
:1013C00051EC100B1AF0BAFE3E49C1F8A80A099870
:1013D000807B000200B20999C97B084301901BF091
:1013E00050F99FED390B53EC102BCDE902019DED27
:1013F000020B51EC100B1BF0ABF9CDE904019DED94
:10140000040B51EC100B1AF099FE2E49C1F8AC0AEE
:101410000998007C000200B20999497C08430190B8
:101420001BF02FF99FED250B53EC102BCDE902019A
:101430009DED020B51EC100B1BF08AF9CDE9040174
:101440009DED040B51EC100B1AF078FE1D49C1F80C
:101450004C0B0998807C000200B20999C97C0843B2
:1014600001901BF00EF99FED150B53EC102BCDE9FD
:1014700002019DED020B51EC100B1BF069F9CDE957
:1014800004019DED040B51EC100B1AF057FE0D49B1
:10149000C1F8500B0998007D000200B20999497DFE
:1014A000084301901BF0EDF89FED070B53EC102B58
:1014B000CDE902019DED020B0AE00000FCA9F1D28A
:1014C0004D62503FD81B00207B14AE47E17A843F29
:1014D00051EC100B1BF03CF9CDE904019DED040B20
:1014E00051EC100B1AF02AFE5649C1F8540B09981A
:1014F000007C000200B20999497C084301901BF06E
:10150000C0F81FED120B53EC102BCDE902019DED3D
:10151000020B51EC100B1BF01BF9CDE904019DED02
:10152000040B51EC100B1AF009FE4649C1F8F40BFC
:101530000998807C000200B20999C97C0843019097
:101540001BF09FF81FED230B53EC102BCDE902018C
:101550009DED020B51EC100B1BF0FAF8CDE90401E4
:101560009DED040B51EC100B1AF0E8FD3549C1F864
:10157000F80B0998007D000200B20999497D0843E3
:1015800001901BF07EF81FED300B53EC102BCDE9D2
:1015900002019DED020B51EC100B1BF0D9F8CDE9C7
:1015A00004019DED040B51EC100B1AF0C7FD254909
:1015B000C1F8FC0B099880780590079900F0C4F8F1
:1015C0000998807815283AD109988078059007996C
:1015D00000F0BAF81C480078401C1B490870012034
:1015E0001A49087000200221194A0346B6EE000A83
:1015F000CDE90021029032224FF47A71154801F0B2
:1016000020FB00200421124A0346B6EE000ACDE971
:101610000021029032224FF47A710F4801F011FB41
:10162000002008210A4A0346B6EE000ACDE900214F
:10163000029032224FF47A71084801F002FB00BF99
:10164000FFF7E3B8D81B0020D2040020D304002009
:10165000005002409C140020B0140020C41400204C
:1016600010B504463448007838B9AA2C05D10120B9
:1016700031490870314804705DE02F480078012836
:1016800007D1AF2C05D102202B4908702B4844709C
:1016900051E029480078022807D1F12C05DA03200F
:1016A000254908702548847045E0234800780328C0
:1016B0000CD1322C0ADA04201F4908701F48C4706C
:1016C0001F48047000201F49087034E01A48007851
:1016D000042819D11A480078002815DD1848007828
:1016E000401E174908701748007816490978491CA8
:1016F000144A1170001D11490C5411480078D0B9DA
:1017000005200D49087016E00B48007805280FD118
:101710000020094908700B480078001D07490C5447
:1017200008480078401DC1B20448FFF74FF802E0B6
:1017300000200149087010BDBE0600206E3F002049
:10174000BC060020BD0600202DE9F04105460E46EE
:1017500000270024AA200D4908704870EF208870E7
:101760000220C87008460571467100BF05E00748B1
:10177000005D3844C7B2601CC4B2062CF7DB0348D6
:101780008771072113F0DEF9BDE8F0813C3F0020AE
:101790002DE9FF4106460F464FF0000800240025C2
:1017A000AA222146641C384842542146641C4254F3
:1017B00004222146641C425400222146641C4254E7
:1017C0002146641C46542146641C47549DF80B2056
:1017D0002146641C42549DF80A202046611CCCB26C
:1017E00029490A549DF809202046611CCCB226499B
:1017F0000A549DF808202046611CCCB222490A54A4
:101800009DF80F202046611CCCB21F490A549DF858
:101810000E202046611CCCB21B490A549DF80D20B5
:101820002046611CCCB218490A549DF80C20214670
:10183000601CC4B2144842549DF829202046611C03
:10184000CCB211490A549DF828202046611CCCB224
:101850000D490A54201FC87000BF00BF06E00A48A7
:10186000405D404400F0FF08681CC5B2A542F6DBAD
:101870002046611CCCB2044901F800802146024890
:1018800013F060F9BDE8FF813C3F0020F0B52DED7D
:101890000A8B81B00646B0EE408AF0EE608AB0EE68
:1018A000419AF0EE619AB0EE42AAF0EE62AAB0EE72
:1018B00043BAF0EE63BAB0EE44CA00240027002514
:1018C000AA222146641C7E4842542146641C42548C
:1018D00006F10F00C2B22146641C7948425400222E
:1018E0002146641C42549FED770A28EE000ABDEEA3
:1018F000C00A10EE100A00B200909DF801202146A7
:10190000641C6F4842549DF800202146641C4254D8
:101910009FED6C0A28EE800ABDEEC00A10EE100A98
:1019200000B200909DF801202146641C6448425496
:101930009DF800202046611CCCB261490A549FEDFD
:10194000620A29EE000ABDEEC00A10EE100A00B2CB
:1019500000909DF801202046611CCCB258490A54E1
:101960009DF800202046611CCCB255490A549FEDD9
:10197000550A29EE800ABDEEC00A10EE100A00B228
:1019800000909DF801202046611CCCB24C490A54BD
:101990009DF800202046611CCCB249490A549FEDB5
:1019A000490A2AEE000ABDEEC00A10EE100A00B283
:1019B00000909DF801202046611CCCB240490A5499
:1019C0009DF800202046611CCCB23D490A549FED91
:1019D0003E0A2AEE800ABDEEC00A10EE100A00B2DE
:1019E00000909DF801202046611CCCB234490A5475
:1019F0009DF800202046611CCCB231490A549FED6D
:101A0000310A2BEE000ABDEEC00A10EE100A00B239
:101A100000909DF801202046611CCCB228490A5450
:101A20009DF800202046611CCCB225490A549FED48
:101A3000250A2BEE800ABDEEC00A10EE100A00B295
:101A400000909DF801202046611CCCB21C490A542C
:101A50009DF800202046611CCCB219490A549FED24
:101A60001A0A2CEE000ABDEEC00A10EE100A00B2EF
:101A700000909DF801202046611CCCB210490A5408
:101A80009DF800202046611CCCB20D490A54201F4D
:101A9000C87000BF05E00A48405D3844C7B2681C02
:101AA000C5B2A542F7DB2046611CCCB204490F54F5
:101AB0002146034813F046F801B0BDEC0A8BF0BD97
:101AC0003C3F002000007A440000C8427FB500245B
:101AD00000250026AA222146641C5548425421466E
:101AE000641C425403222146641C425400222146B5
:101AF000641C42549DF801202146641C42549DF808
:101B000000202146641C42549DF805202146641C97
:101B100042549DF804202046611CCCB244490A542A
:101B20009DF809202046611CCCB241490A549DF819
:101B300008202046611CCCB23D490A549DF80D2076
:101B40002046611CCCB23A490A549DF80C2020462C
:101B5000611CCCB236490A549DF821202046611CF4
:101B6000CCB233490A549DF820202146601CC4B2EF
:101B70002F4842549DF825202046611CCCB22C49A8
:101B80000A549DF824202046611CCCB228490A54EE
:101B90009DF829202046611CCCB225490A549DF8A5
:101BA00028202046611CCCB221490A549DF82D20E2
:101BB0002046611CCCB21E490A549DF82C202046B8
:101BC000611CCCB21A490A549DF831202046611C90
:101BD000CCB217490A549DF830202046611CCCB283
:101BE00013490A549DF835202046611CCCB2104997
:101BF0000A549DF834202046611CCCB20C490A548A
:101C0000201FC87000BF00BF05E00948405D304498
:101C1000C6B2681CC5B2A542F7DB2046611CCCB237
:101C200003490E542146024812F08CFF7FBD00008C
:101C30003C3F00202DE9F84F06460F469046994656
:101C4000DDF828B00024A2460025AA222146641C03
:101C5000574842542146641C425402222146641CC7
:101C6000425400222146641C425400969DF80120F3
:101C70002146641C42549DF800202146641C4254B5
:101C800000979DF801202146641C42549DF80020D5
:101C90002046611CCCB246490A54CDF800809DF81C
:101CA00001202046611CCCB241490A549DF8002015
:101CB0002046611CCCB23E490A54CDF800909DF8F4
:101CC00001202046611CCCB239490A549DF80020FD
:101CD0002046611CCCB236490A54CDF800B09DF8BC
:101CE00001202046611CCCB231490A549DF80020E5
:101CF0002046611CCCB22E490A540B9800909DF8E6
:101D000001202046611CCCB229490A549DF80020CC
:101D10002046611CCCB226490A540C9800909DF8CC
:101D200001202046611CCCB221490A549DF80020B4
:101D30002046611CCCB21E490A540D9800909DF8B3
:101D400001202046611CCCB219490A549DF800209C
:101D50002046611CCCB216490A540E9800909DF89A
:101D600001202046611CCCB211490A549DF8002084
:101D70002046611CCCB20E490A54201FC87000BF17
:101D800000BF06E00A48405D504400F0FF0A681CAE
:101D9000C5B2A542F6DB2046611CCCB2044901F86D
:101DA00000A02146024812F0CDFEBDE8F88F0000E9
:101DB0003C3F00207CB500240026AA222146641C5A
:101DC000534842542146641C425401222146641C5B
:101DD000425400222146641C42544E4890ED000AB1
:101DE000DFED4D0A20EE200ABDEEC00A10EE100A0B
:101DF00000B201909DF805202146641C44484254DD
:101E00009DF804202146641C4254444890ED000A89
:101E1000DFED410A20EE200ABDEEC00A10EE100AE6
:101E200000B201909DF805202146641C38484254B8
:101E30009DF804202046611CCCB235490A5438482C
:101E400090ED000AB1EE400ADFED330A20EE200AE1
:101E5000BDEEC00A10EE100A00B201909DF80520F8
:101E60002046611CCCB22A490A549DF80420204621
:101E7000611CCCB226490A542A4890ED000ADFEDD5
:101E8000260A20EE200ABDEEC00A8DED000A9DF85C
:101E900003202046611CCCB21D490A549DF8022043
:101EA0002046611CCCB21A490A549DF801202046F4
:101EB000611CCCB216490A549DF800202046611CD2
:101EC000CCB213490A5401222046611CCCB21049FD
:101ED0000A54154802782046611CCCB20C490A54B9
:101EE000201FC87000BF002505E00948405D304450
:101EF000C6B2681CC5B2A542F7DB2046611CCCB255
:101F000003490E542146024812F01CFE7CBD00001D
:101F10003C3F0020900E00200000C8428C0E0020A4
:101F2000300F0020602A0020FE04002010B586B08B
:101F3000ED480088401C00B2EB4908800846008844
:101F4000012802D1FFF736FFCBE1E74800880228DD
:101F50004FD1E64890ED080ABDEEC00A10EE100A17
:101F600002B2E24890ED070ABDEEC00A10EE100A78
:101F700000B2DE4991ED060ABDEEC00A10EE101A5D
:101F800009B2DA4B93ED020ABDEEC00A10EE103A28
:101F90001BB2CDE90131CDE90302D44890ED010A2D
:101FA000BDEEC00A10EE100A00B2D04C009094EDC5
:101FB000000ABDEEC00A10EE104A23B2CB4C94EDDD
:101FC000050ABDEEC00A10EE104A22B2C74C94EDCD
:101FD000040ABDEEC00A10EE104A21B2C34C94EDC3
:101FE000030ABDEEC00A10EE104A20B2FFF722FE2F
:101FF00077E1BD480088032816D10022BC48C0897B
:10200000BB498989CDE90302B9480592029140890B
:10201000B7490989B64CCDE9001063882288E18868
:10202000A088FFF753FD5CE1AF480088042820D169
:10203000B0480078E8B9AF484078D0B9AD4880786A
:10204000B8B9AC48C078A0B9AA48007988B9A948FD
:10205000407970B90A200090A7480178A748036822
:10206000A74802680120FFF793FB00209E490880E3
:1020700037E19D48008804280BD10A2000909E4833
:1020800001789E4803689E4802680120FFF780FBA4
:1020900027E19548008805282FD196480078012827
:1020A0002BD19848D0EDDD4AB0EE644AD0EDDC4A41
:1020B000F0EE643AD0EDDB4AB0EE643AD0ED354A4A
:1020C000F0EE642AD0ED344AB0EE642AD0ED334A03
:1020D000F0EE641AD0ED894AB0EE641AD0ED884A69
:1020E000F0EE640AD0ED874AB0EE640A0120FFF7F3
:1020F000CDFB00207F490870F3E07B48008806286C
:102100002FD17C48407801282BD17E48D0EDB34AAE
:10211000B0EE644AD0EDB24AF0EE643AD0EDB14A86
:10212000B0EE643AD0ED0B4AF0EE642AD0ED0A4AE4
:10213000B0EE642AD0ED094AF0EE641AD0ED5F4AA1
:10214000B0EE641AD0ED5E4AF0EE640AD0ED5D4A5E
:10215000B0EE640A0220FFF799FB00206549487041
:10216000BFE061480088072832D1624880780128A2
:102170002ED16548D0ED0B4AB0EE644AD0ED0A4A44
:10218000F0EE643AD0ED094AB0EE643AA0F5527030
:10219000D0ED0B4AF0EE642AD0ED0A4AB0EE642A84
:1021A000D0ED094AF0EE641AA830D0ED0B4AB0EE3B
:1021B000641AD0ED0A4AF0EE640AD0ED094AB0EE96
:1021C000640A0320FFF762FB00204A49887088E018
:1021D0004548008808282CD14648C078012828D1D5
:1021E0004948A83090ED0B3AF0EE432A90ED0A3AB8
:1021F000B0EE432A90ED093AF0EE431AA0F5A8702C
:1022000090ED0B3AB0EE431A90ED0A3AF0EE430A25
:1022100090ED093AB0EE430A9FED3C4ADFED3B3AC0
:102220009FED3A3A0420FFF731FB00203149C87096
:1022300057E02D480088092831D12E48007901281F
:102240002DD13348D0ED0B4AB0EE644AD0ED0A4AA6
:10225000F0EE643AD0ED094AB0EE643AA838D0ED19
:102260000B4AF0EE642AD0ED0A4AB0EE642AD0EDB3
:10227000094AF0EE641AA838D0ED0B4AB0EE641AA1
:10228000D0ED0A4AF0EE640AD0ED094AB0EE640AD5
:102290000520FFF7FBFA00201649087121E01248DB
:1022A00000880A281DD113484079012819D19FEDD3
:1022B000174ADFED163A9FED153ADFED142A9FED30
:1022C000132ADFED121A9FED111ADFED100A9FEDB0
:1022D0000F0A0620FFF7DAFA002006494871024982
:1022E000088006B010BD0000C00600206438002041
:1022F00044420020B606002004040020C40300204D
:10230000C0030020D81B0020102300200000000084
:102310000027002030B587B00024002004900590ED
:1023200006909A480078052873DC002039E0984927
:1023300091ED000AF3EE040AB4EEE00AF1EE10FAB1
:102340002AD8944991F85410012925D100241BE082
:102350009049483101EB840191ED000ADFED8E0ACE
:1023600060EE200A9FED8D1A80EE810A04A901EB30
:102370008401D1ED000A30EE200A04A901EB8401AA
:1023800081ED000A611C8CB2032CE1DB411C88B298
:102390000021804A82F854100121814A7B4B1B782E
:1023A000D154B0F57A7FC2DBDDED040A00EE100AED
:1023B000B8EE400A80EE801A7449097801EB4101B9
:1023C000784A02EB810181ED001ADDED050A00EE8D
:1023D000100AB8EE400A80EE801A6C49097801EBC9
:1023E000410102EB810181ED011ADDED060A00EEEB
:1023F000100AB8EE400A80EE801A6449097801EBB1
:10240000410102EB810181ED021A06215F4A117040
:1024100000BF63480078624949780840604989787C
:1024200008405F49C97808405D49097908405C491E
:1024300049790840002871D05B48007800286DD1A8
:10244000012059490870002058490870584A5949D4
:10245000544800F077FE58490870002504E0002039
:102460004F494855681C85B2062DF8DB5248007864
:10247000012854D14F48D0ED021AB0EE611AD0EDC8
:10248000011AF0EE610AD0ED001AB0EE610A4B4974
:10249000022013F032F84648D0ED021AB0EE611A6D
:1024A000D0ED011AF0EE610AD0ED001AB0EE610A2B
:1024B0004249052013F021F80BF06CFD0020404943
:1024C000088002213F4A03469FED3F0ACDE90021E3
:1024D0000290642240F6B8313C4800F0B2FB002084
:1024E0000421384A0346B6EE000ACDE900210290E5
:1024F000642240F6B831364800F0A3FB00200821E2
:10250000304A03469FED330ACDE900210290642250
:1025100040F6B831304800F094FB32E034E000205F
:10252000274908800221274A03469FED270ACDE963
:1025300000210290C82241F28831244800F081FB3A
:10254000002004211F4A0346B6EE000ACDE900210F
:102550000290C82241F288311D4800F072FB002031
:102560000821184A03469FED1B0ACDE9002102907D
:10257000C82241F28831184800F063FB0020174957
:102580000880012007B030BD0020FBE7E1000020FB
:10259000B40E0020643800200AE81C410000004509
:1025A000E30000209C120020E9000020E20000204F
:1025B000D400002078120020E0000020E03F00203E
:1025C00052010020005002409A99993E9C1400202C
:1025D000B0140020CDCC4C3FC4140020780400205F
:1025E00010B52DED028B84B00024F8480088B0F5BA
:1025F0007A7F2ED1F648B0F900001AF042F841EC8B
:10260000180B9FEDF40B53EC102B1AF09FF920D808
:10261000F248B0F900001AF034F841EC180B9FEDC5
:10262000F00B53EC102B1AF057F812D8EE48B0F913
:1026300000001AF026F841EC180B9FEDEC0B53EC60
:10264000102B1AF083F904D8EA480088401CE949A5
:102650000880DE480088B0F57A7F71D1DC48B0F997
:1026600000001AF00EF841EC180B9FEDDA0B53EC5A
:10267000102B1AF06BF963D8D848B0F900001AF0A3
:1026800000F841EC180B9FEDD60B53EC102B1AF011
:1026900023F855D8D448B0F9000019F0F2FF41EC06
:1026A000180B9FEDD20B53EC102B1AF04FF974D886
:1026B000D0480088B0F5167F6FDBCF48008800282F
:1026C0006BD10120CD490880CD4908700020CD494B
:1026D000087001200221CC4A0023B6EE000ACDE9A1
:1026E0000021029064224FF47A71C84800F0A9FAE0
:1026F00001200421C44A0023B6EE000ACDE90021DE
:10270000029064224FF47A71C14800F09AFA0120D5
:102710000821BD4A0023B6EE000ACDE9002102904F
:1027200064224FF47A71BB4800F08BFA0620BA4954
:1027300008700020B9490870AE49088000241EE0E6
:102740002BE00020B64908559FEDB60A04EB440083
:10275000B54901EB800080ED000A9FEDB20A04EB61
:10276000440001EB800080ED010A9FEDAE0A04EB0E
:10277000440001EB800080ED020A601C84B2062C4C
:10278000DFDB0A20A949088001200FF0BDFC0120F1
:102790000FF0E2FC0020A649088099480078012843
:1027A0007ED18A480088B0F57A7F24D18848B0F974
:1027B000000019F066FF41EC180B9FED9E0B53ECE7
:1027C000102B19F089FF16D88448008898B98648DC
:1027D000008880B999480088401C984908800846BC
:1027E0000088142806DB00208B4908709449088073
:1027F00094490880DFE075480088B0F57A7F25D1DC
:102800007348008810BB7548B0F9000019F039FF13
:1028100041EC180B9FED750B53EC102B1AF096F84A
:1028200014D87148008888B984480088401C8349BE
:102830000880084600881428DCDB012076490870EF
:1028400000207F4908807F490880B4E05F48008805
:10285000B0F57A7F27D15E48008820BB5F48B0F989
:10286000000019F00EFF41EC180B9FED5D0B53ECCF
:10287000102B19F031FF16D85B48008898B96F48C3
:102880000088401C6D490880084600881428B1DB88
:10289000022061490870002069490880694900E008
:1028A00090E0088087E049480088B0F57A7F25D11C
:1028B0004748008810BB49480088F8B94A48B0F931
:1028C000000019F0DEFE41EC180B9FED480B53ECB5
:1028D000102B1AF03BF811D858480088401C574973
:1028E000088008460088142865DB03204A490870E0
:1028F000002053490880534908805CE03348008831
:10290000B0F57A7F25D13248008810BB3348008863
:10291000F8B93548B0F9000019F0B3FE41EC180BD6
:102920009FED2F0B53EC102B19F0D6FE11D8434816
:102930000088401C414908800846008814283ADB7A
:1029400004203549087000203D4908803D49088031
:1029500031E01E480088B0F57A7F25D11C48B0F9D7
:10296000000019F08EFE41EC180B9FED1A0B53EC92
:10297000102B19F0EBFF17D218480088A0B91A489D
:10298000008888B92D480088401C2C4908800846DA
:10299000008814280FDB05201F49087000202849F3
:1029A00008802849088006E02449088800EBD07197
:1029B0004910224A118021480088C82802DB0020E3
:1029C0001E49088004B0BDEC028B10BDEA04002053
:1029D000F00400200000000000C06240EE0400206F
:1029E00000000000008036C0EC0400200000000061
:1029F00000803640EA000020FE0400205201002042
:102A0000E2000020E0000020005002409C14002062
:102A1000B0140020C4140020E1000020E9000020D0
:102A2000E3000020000000009C1200207804002039
:102A30000C0500200000000000C062C0EC00002077
:102A4000060500200805002010B53B4890ED000A5F
:102A50003A48D0ED000A30EE600A394880ED020AAB
:102A600009F0FAFF374890ED000A3748D0ED000A28
:102A700030EE600A324880ED560A00F5A87009F081
:102A8000EBFF32480088002846D131480088B0F575
:102A9000FA7F04DC2E480088401C2D490880284815
:102AA00090EDA90AB5EEC00AF1EE10FA08D0284858
:102AB0000088B0F5FA7F03DD26480078012805D1AB
:102AC000254890ED000A1E4880EDA90A224890EDA5
:102AD000000A1B4880EDAA0A00F528700AF0ECFDF8
:102AE000174890EDB40A80EDD30A1C48407B0128BA
:102AF00021D11B48007801281DD11A4890ED000A09
:102B0000F0EE080A20EE200A0D4880EDD30A9FED72
:102B1000160A80EDA90A0EE09FED130A084880ED21
:102B2000A90A0A48B0F9000000EE100AB8EEC00A7F
:102B3000034880EDD30A10BD8C0E00202801002030
:102B4000D81B0020900E00202C010020F004002053
:102B5000EE0C0020EB0B0020940E0020CE4900204C
:102B6000AB0C0020D40D00200000000010B5FFF7D2
:102B70006BFF04F0D7FB10BD10B50D4810F07AFEC6
:102B80000B48C01E10F076FE0A480B490860FF2073
:102B9000091D08600E21094803F0D8FA04210848ED
:102BA00003F0D4FA00220421054803F01AFB10BDFB
:102BB000050800F04B434F4C206500400050024098
:102BC0000060004010B504462088012803DB2088FF
:102BD000401E208004E0227CD1B2E06803F001FBBB
:102BE000208810B9A07C01282AD12089401C20818E
:102BF000208900EB80006188884201DB0020208171
:102C0000608800EE100AB8EE400AD4ED010A60EECA
:102C1000200A208900EB800000EE100AB8EEC00AFE
:102C2000F4EEC00AF1EE10FA05DB227CD1B2E068C6
:102C300003F0D7FA04E0217C0022E06803F0D1FA27
:102C400010BDF0B505AC70CC0527B1FBF7F70780D8
:102C5000428080ED010A0381C46005828674F0BD64
:102C600010B504464CB95848FFF7ACFF5748FFF77A
:102C7000A9FF5748FFF7A6FFA4E0012C5CD15548F7
:102C8000007848B95048FFF79DFF504803F0AEFA6E
:102C90004F4803F0ABFA95E04E480078012809D17F
:102CA0004A48FFF78FFF484803F0A0FA484803F06E
:102CB0009DFA87E047480078022809D14248FFF78B
:102CC00081FF4248FFF77EFF414803F08FFA79E029
:102CD00040480078032809D13D48FFF773FF3A4880
:102CE00003F084FA394803F081FA6BE03948007840
:102CF000042809D13448FFF765FF3548FFF762FF24
:102D0000324803F073FA5DE032480078052809D1B3
:102D10002D4803F06BFA2D48FFF754FF2C48FFF7BE
:102D200051FF4FE02848FFF74DFF2848FFF74AFFC3
:102D30002748FFF747FF45E0022C32D126480078AC
:102D400048B92148FFF73EFF204803F04FFA2048DA
:102D500003F04CFA36E020480078012809D11A48DF
:102D600003F044FA1948FFF72DFF194803F03EFA23
:102D700028E019480078022809D1134803F036FAF0
:102D8000124803F033FA1248FFF71CFF1AE00E480E
:102D9000FFF718FF0D48FFF715FF0D48FFF712FF6B
:102DA00010E0032C0ED1022211460C4803F019FA50
:102DB00004221146094803F014FA08221146074874
:102DC00003F00FFA10BD00009C140020B014002086
:102DD000C4140020E1000020F80000200050024050
:102DE00010B52248DFED220A9FED220A10F07CF98F
:102DF0002148DFED220A9FED1F0A10F075F92048E7
:102E0000DFED200A9FED1B0A10F06EF91E48F3EE6D
:102E10000E0A9FED180A10F067F91C48F3EE040A39
:102E20009FED140A10F060F91948F2EE0E0A9FEDBA
:102E3000110A10F059F91748F2EE040A9FED0D0A35
:102E400010F052F91448F1EE040A9FED0A0A10F04E
:102E50004BF91248F0EE000A9FED060A10F044F913
:102E60000F4A01210A2017F0A1FB10BD1415002004
:102E70000000A042000048432C15002000007042D2
:102E80004415002000004C425C1500207415002001
:102E90008C150020A4150020BC150020D41500209E
:102EA000EC14002070B503460C46154600204DE09A
:102EB000461C31B246E000EB400604EBC60606EBCA
:102EC0008106D6ED000A00EB400604EBC60606EBD1
:102ED000800696ED001A80EE810AB5EEC00AF1EE8A
:102EE00010FA2DD003EB8106D6ED000A03EB800625
:102EF00096ED001A40EE410A03EB8106C6ED000A8A
:102F00000A461BE002EB420604EBC60606EB81060E
:102F1000D6ED000A02EB420604EBC60606EB80067D
:102F200096ED001A40EE410A02EB420604EBC6069B
:102F300006EB8106C6ED000A561C32B2062AE1DB1A
:102F40004E1C31B20629B6DB461C30B20628AFDB78
:102F5000052045E000EB400604EBC60606EB8006C4
:102F6000D6ED000A03EB800696ED001AC1EE201A9A
:102F700003EB8006C6ED001AF7EE000A00EB4006F0
:102F800004EBC60606EB8006C6ED000A002123E02E
:102F900000EB400604EBC60606EB8106D6ED000A00
:102FA000B0EE600A03EB8106D6ED000A03EB800663
:102FB00096ED001A40EE410A03EB8106C6ED000AC9
:102FC000DFED100A00EB400604EBC60606EB8106B7
:102FD000C6ED000A4E1C31B28142D9DB461E30B22A
:102FE0000028B7DA002009E003EB8006D6ED000ADE
:102FF00005EB8006C6ED000A461C30B20628F3DB5E
:1030000070BD00000000000010B502460B46002015
:1030100017E09FED0D0A02EB800484ED000A002109
:103020000BE09FED090A00EB400403EBC40404EB42
:10303000810484ED000A4C1C21B20629F1DB441CFA
:1030400020B20628E5DB10BD00000000F0B586B018
:1030500004460D46F7EE001AB0EE611A002035E086
:10306000C61C02EB8606D6ED000A03EB8006D6ED01
:10307000001A02EB800696ED002A31EEC20A60EEDD
:10308000A01A21EE802AF0EE411A42EE401AB0EE6C
:10309000611AF0EE001A60EEA11A61EEA01A61EE5C
:1030A000801A6E4606EB8006C6ED001AF8EE001A8E
:1030B00060EEA11A61EE801A61EE801AC61C6F469E
:1030C00007EB8606C6ED001A461C30B20328C7DBA4
:1030D000002032E004EB8006D6ED001A6E4606EBC7
:1030E000800696ED002A42EE011A04EB8006C6ED3A
:1030F000001A00211DE000EB400605EBC60606EBBA
:103100008106D6ED001A6E4606EB800696ED002A83
:103110006E4606EB8106D6ED002A42EE221A00EB3F
:10312000400605EBC60606EB8106C6ED001A4E1CEE
:1031300031B20629DFDB461C30B20628CADB06B0F6
:10314000F0BD00002DE9F0432DED028BB9B007462C
:103150000E4614464FF000089FED9F0AB0EE408ADD
:103160009FED9E0AF0EE408A00203690379038900E
:10317000182130A8FDF7F3F918212AA8FDF7EFF977
:10318000182124A8FDF7EBF990216846FDF7E7F92F
:103190004FF001099FED920A8DED320A8DED310A53
:1031A0008DED300A9FED8F0A8DED350A8DED340AD5
:1031B0008DED330A7FE008F101000FFA80F86946CF
:1031C00024A8FFF721FF00251FE005EB450007EBD2
:1031D000800090ED000A8DED360A05EB450007EB07
:1031E000800090ED010A8DED370A05EB450007EBF5
:1031F000800090ED020A8DED380A36AB30AA6946A0
:1032000024A8FFF723FF681C05B2062DDDDB2AAAE0
:10321000694624A8FFF746FE9DED2D0A20EE000A20
:10322000DDED330A20EEA01AC0EE010A9DED2A0A58
:1032300020EE000A30EE000A9DED2B1ADDED2B1A70
:1032400001EE210A9DED2C1ADDED2C1A01EE210A6A
:1032500030EE800ADDED2E0A60EEA00A9DED341AF4
:1032600021EE011AC0EE811A70EE210A9DED2F0A9F
:1032700020EE000A9DED351A21EE011AC0EE011A6A
:1032800030EEA10AF0EE408A002512E030A800EBF3
:10329000850090ED000A2AA800EB8500D0ED000A19
:1032A00030EE600A30A800EB850080ED000A681C53
:1032B00005B2062DEADBB8F1140F05DAF4EEC88A80
:1032C000F1EE10FA3FF777AF9DED330ADFED460AD6
:1032D00020EE200A84ED000A9DED340ADFED420A5B
:1032E00020EE200A84ED010A9DED350ADFED3E0A4D
:1032F00020EE200A84ED020A9DED300AD4ED000A8A
:1033000020EE200A86ED000A9DED310AD4ED010A77
:1033100020EE200A86ED010A9DED320AD4ED020A64
:1033200020EE200A86ED020A94ED000AF7EE000A6C
:1033300030EE600AB0EEC00AF6EE000AB4EEE00A23
:10334000F1EE10FA1DDC94ED010AF7EE000A30EE02
:10335000600AB0EEC00AF6EE000AB4EEE00AF1EE42
:1033600010FA0EDC94ED020AF7EE000A30EE600A65
:10337000B0EEC00AF6EE000AB4EEE00AF1EE10FA82
:1033800001DD4FF0000996ED000AB0EEC00AF1EE43
:10339000040AB4EEE00AF1EE10FA15DC96ED010A2B
:1033A000B0EEC00AF1EE040AB4EEE00AF1EE10FA53
:1033B0000ADC96ED020AB0EEC00AF1EE040AB4EEA1
:1033C000E00AF1EE10FA01DD4FF00009484639B08D
:1033D000BDEC028BBDE8F0835F7089300000C8420D
:1033E000000000007FD6D03D0AE81C4110B51E4801
:1033F0000078401C1C4908701C48007801280FD137
:103400001B480088401C1A49088008460088B0F50F
:103410007A7F1ADB0020088002201449087014E02B
:1034200012480078032810D111480088401C104928
:10343000088008460088642807DB002008800420F4
:103440000A49087001200B490870074800780428D1
:1034500004DB00F069FF00200349087010F0FBFF57
:1034600000F0F2FB10BD0000F00C002076040020FC
:10347000F20C002077040020002009490978012976
:1034800001D140F0010007490978012901D140F03C
:10349000020005490978012901D140F00400704774
:1034A0007A040020E2000020F100002010B501465F
:1034B000002001EBC1026E4B13F8222001EBC10387
:1034C0006B4C04EB83035B781A4001EBC10304EB04
:1034D00083039B781A4001EBC10304EB8303DB7881
:1034E0001A4001EBC10304EB83031B791A4001EB83
:1034F000C10304EB83035B791A4001EBC10304EBC6
:1035000083039B791A4001EBC10304EB8303DB794E
:103510001A4001EBC10304EB83031B7A1A4001EB51
:10352000C10304EB83035B7A1A4001EBC10304EB94
:1035300083039B7A1A4001EBC10304EB8303DB7A1C
:103540001A4001EBC10304EB83031B7B1A4001EB20
:10355000C10304EB83035B7B1A4001EBC10304EB63
:1035600083039B7B1A4001EBC10304EB8303DB7BEA
:103570001A4001EBC10304EB83031B7C1A4001EBEF
:10358000C10304EB83035B7C1A4001EBC10304EB32
:1035900083039B7C1A4001EBC10304EB8303DB7CB8
:1035A0001A4001EBC10304EB83031B7D1A4001EBBE
:1035B000C10304EB83035B7D1A4001EBC10304EB01
:1035C00083039B7D1A4001EBC10304EB8303DB7D86
:1035D0001A4001EBC10304EB83031B7E1A4001EB8D
:1035E000C10304EB83035B7E1A4001EBC10304EBD0
:1035F00083039B7E1A4001EBC10304EB8303DB7E54
:103600001A4001EBC10304EB83031B7F1A4001EB5B
:10361000C10304EB83035B7F1A4001EBC10304EB9E
:1036200083039B7F1A4001EBC10304EB8303DB7F21
:103630001A4001EBC10304EB830393F820301A40D6
:1036400001EBC10304EB830393F821301A4001EB33
:10365000C10304EB830393F822301A4001EBC1034A
:1036600004EB830393F823301A4002B1012010BD0C
:103670005C13002010B5242241210E200FF06AFEB9
:10368000C02242210E200FF065FE0448F3EE020A2C
:103690009FED030A0FF028FD10BD0000F41A002072
:1036A000000020421CB5044632480088401C3149C5
:1036B000088008460088012805D101220A210E2031
:1036C0000FF048FE54E02B480088062850D1032113
:1036D0000E200FF037FE8DF8000004210E200FF0B1
:1036E00031FE8DF8010005210E200FF02BFE8DF824
:1036F000020006210E200FF025FE8DF803000721A1
:103700000E200FF01FFE8DF8040008210E200FF090
:1037100019FE8DF805009DF800009DF8011040EAA3
:10372000012000B200EE100AB8EEC00A84ED000AD3
:103730009DF802009DF8031040EA012000B24042CB
:1037400000EE100AB8EEC00A84ED010A9DF80400EC
:103750009DF8051040EA012000B200EE100AB8EE14
:10376000C00A84ED020A00200249088001201CBD25
:103770000020FCE7520F0020F8B5642014F018FE7A
:103780004FF4A176AA200FF07BFAAB200FF078FA65
:103790003A4908780FF074FA384948780FF070FA0F
:1037A000364988780FF06CFA3449C8780FF068FA17
:1037B00032490978314A52785140304A9278514022
:1037C0002E4AD27881EA02000FF05AFA00254FF60D
:1037D000FF702B49088017E009E029480088401E47
:1037E000274908800846008808B90020F8BD254808
:1037F00010F0A3FF0028F0D0224810F08DFFC2B2D5
:1038000028466D1C0DF80020032DE5DB00242DE07B
:10381000BB200FF035FADC200FF032FA1A49085DB0
:103820000FF02EFA184A611C505C0FF029FA164965
:10383000095D81F0DC01144B621C9A5C81EA020094
:103840000FF01EFA00250DE000BF0E4810F075FFC6
:103850000028FAD00B4810F05FFFC2B228466D1C5A
:103860000DF80020032DEFDBA01C84B2B442CFDBA7
:10387000DD200FF005FA0120B8E700003CF101005F
:10388000BA0400200020014040F1010010B51648A4
:103890000FF0F0FF15480FF0EDFF012002F00AFCD9
:1038A00040F2014002F006FC03214FF0402002F0FC
:1038B00089FC05210E4810F046FF0E4A4FF4E13115
:1038C000002010F0A3FF0A4810F080FF10210848E4
:1038D00010F083FF0849064810F083FF40211520AF
:1038E00004F07EFA10BD0000000800F0001800F09F
:1038F00000C000400024F4008D45010010B51548BB
:103900000FF0B8FF14480FF0B5FF4FF0011002F0B0
:10391000D1FB124802F0CEFB0321114802F052FC09
:103920000521104810F00FFF0F4A4FF4E13101203C
:1039300010F06CFF0B4810F049FF1021094810F0FF
:103940004CFF0A49074810F04CFF8021162004F074
:1039500047FA10BD010800F0011800F00104010051
:103960000050004000D000400024F400C945010090
:1039700070B504461A480FF07DFF1A480FF07AFF21
:1039800019481A490860081D006840F08000091DA8
:1039900008600020091F0860154802F08BFB1548DD
:1039A00002F088FBC021144802F00CFC0FF036FE38
:1039B0000546602322462946104810F0C7FE0F48EE
:1039C00010F004FF50210D4810F007FF0C490B4880
:1039D00010F007FF2021312004F002FA70BD000032
:1039E000030800F0021800F04B434F4C20750040D4
:1039F00001180300011C03000070004000E00040BB
:103A0000FD45010010B515480FF034FF14480FF0C4
:103A100031FF144802F04EFB134802F04BFBC0216B
:103A2000124802F0CFFB0FF0F9FD044660234FF47B
:103A3000E13221460E4810F089FE0D4810F0C6FE16
:103A400010210B4810F0C9FE0A49094810F0C9FEC0
:103A500060214B2004F0C4F910BD0000020800F002
:103A6000031800F001180200011C02000060004071
:103A700000F000404D46010010B518480FF0FAFE66
:103A800017480FF0F7FE174802F014FB164802F033
:103A900011FB3021154802F095FB0FF0BFFD0446E5
:103AA00060234FF496422146114810F04FFE104813
:103AB00010F08CFE10210E4810F08FFE08F062FD11
:103AC000FFF75AFE0B4908700B49094810F089FEB0
:103AD000A0214E2004F084F910BD0000030800F07E
:103AE000061800F0011003000114030000700040EC
:103AF00000200140360D00208146010010B52C4801
:103B00000FF0B8FE2B480FF0B5FE2B4802F0D2FAAA
:103B10002A4802F0CFFA0321294802F053FB294931
:103B2000086820F00041C1F1FF41C90F11BB2548D1
:103B300090ED000ABCEEC00A10EE100A224908708F
:103B40000846007801280AD10FF068FD044660237A
:103B50004FF4165221461D4810F0F8FD14E00FF006
:103B60005DFD044660234FF4E1322146174810F012
:103B7000EDFD09E00FF052FD044660234FF41652AC
:103B80002146124810F0E2FD11480EF00AFB0F48E2
:103B900010F01CFE10210D4810F01FFE0D490B48BF
:103BA00010F01FFED0214F2004F01AF910BD0000C4
:103BB000040800F0071800F00100040001040400EC
:103BC000004002405C0B00205A0B002000300140F6
:103BD0006E3E0020BD460100F0EE400AC0ED020A34
:103BE00091ED030A90ED021A20EE010A91ED041AFC
:103BF000D0ED011A01EE210A91ED051AD0ED001A5F
:103C000001EE210A91ED011AD0ED041A01EE610ACC
:103C100091ED021AD0ED031A01EE610A80ED050A5A
:103C200090ED010A80ED000A90ED020A80ED010A94
:103C300090ED040A80ED030A90ED050A80ED040A78
:103C400090ED050A70470000F0B52DED048B85B0AE
:103C500010F012FA15F082FFFE48008801287DD18D
:103C6000FD48007801287AD1FC480088B0F57A7FB9
:103C700012DCFB480088B0F57A7F0DDCF94800883B
:103C8000B0F57A7F08DCF8480088B0F57A7F03DC6D
:103C90006420F649088031E0F548007870BB0020C8
:103CA000EC4908800221F34A0346B6EE000ACDE94A
:103CB00000210290C82240F6B831EF48FEF7C1FF5C
:103CC00000200421EB4A0346B6EE000ACDE90021AC
:103CD0000290C82240F6B831E848FEF7B2FF002053
:103CE0000821E44A0346B6EE000ACDE9002102901D
:103CF000C82240F6B831E248FEF7A3FFE148008849
:103D0000401CE04908800846008804280BDBD7489F
:103D10000088012804DBD5480088401ED34908806C
:103D20000020D8490880D1480088C0F1640064218F
:103D3000484390FBF1F000F57A70D3490880CB48F6
:103D40000088C0F164006421484390FBF1F000F565
:103D50007A70CE490880C548008801E004E21CE082
:103D6000C0F164006421484390FBF1F000F57A70E3
:103D7000C7490880BD480088C0F1640064214843F9
:103D800090FBF1F000F57A70C24908800FF066FFF1
:103D900008F080FC08F098FBF4E1BF4800780128A7
:103DA0007ED1BE48008840F27E41884279DBBC4823
:103DB000008800EE100AB8EE400AF7EE000A20EE86
:103DC000200AB848D0ED8A0ABFEE001A01EE200A98
:103DD000D0ED360AB7EE001A01EE200AD0EDDE0A69
:103DE000BFEE001A01EE200ABDEEC00A10EE100A66
:103DF000A5490880AA48008800EE100AB8EE400ADB
:103E0000F7EE000A20EE200AA648D0ED8A0AB7EEA7
:103E1000001A01EE200AD0ED360ABFEE001A01EEBC
:103E2000200AD0EDDE0ABFEE001A01EE200ABDEE38
:103E3000C00A10EE100A954908809948008800EEE3
:103E4000100AB8EE400AF7EE000A20EE200A954864
:103E5000D0ED8A0AB7EE001A01EE200AD0ED360A3C
:103E6000B7EE001A01EE200AD0EDDE0AB7EE001A16
:103E700001EE200ABDEEC00A10EE100A8449088047
:103E80008748008800EE100AB8EE400AF7EE000AF4
:103E900020EE200A8348D0ED8A0ABFEE001A01E026
:103EA00066E014E001EE200AD0ED360ABFEE001AFB
:103EB00001EE200AD0EDDE0AB7EE001A01EE200A6C
:103EC000BDEEC00A10EE100A7249088011E0744875
:103ED00000886D490880724800886C4908807048E5
:103EE00000886B4908806E4800886A4908800FF096
:103EF000B5FE654802884FF4FA6140F24C4010F07C
:103F0000D9FF61490880614802884FF4FA6140F2A4
:103F10004C4010F0CFFF5D4908805D4802884FF4A7
:103F2000FA6140F24C4010F0C5FF594908805948E9
:103F300002884FF4FA6140F24C4010F0BBFF554943
:103F40000880594802884FF4FA6140F24C4010F062
:103F5000B1FF55490880554802884FF4FA6140F294
:103F60004C4010F0A7FF5149088010F0AFF909E16B
:103F7000494800780228FAD14948008800EE100A22
:103F8000B8EE400AF7EE000A20EE200A4548D0EDD0
:103F90008A0ABFEE001A01EE200AD0ED360AB7EE0B
:103FA000001A01EE200AD0EDDE0ABFEE001A01EE83
:103FB000200ABDEEC00A10EE100A334908803848C6
:103FC000008800EE100AB8EE400AF7EE000A20EE74
:103FD000200A3448D0ED8A0AB7EE001A01EE200A12
:103FE000D0ED360ABFEE001A01EE200AD0EDDE0A4F
:103FF000BFEE001A01EE200ABDEEC00A10EE100A54
:10400000224908802648008800EE100AB8EE400ACF
:10401000F7EE000A20EE200A2248D0ED8A0AB7EE19
:10402000001A01EE200AD0ED360AB7EE001A01EEB2
:10403000200AD0EDDE0AB7EE001A01EE200ABDEE2E
:10404000C00A10EE100A124908801548008800EED8
:10405000100A2DE0FE040020EB0B00208E0C002047
:10406000900C0020920C0020940C0020EC0C0020FE
:10407000EA0B0020005002409C140020B0140020E5
:10408000C4140020EA0C0020820C0020840C0020C4
:10409000860C0020880C00209A0C0020DC0C0020EC
:1040A000E80C0020D81B00208A0C00208C0C00207B
:1040B000B8EE400AF7EE000A20EE200A8A48D0ED5A
:1040C0008A0ABFEE001A01EE200AD0ED360ABFEED2
:1040D000001A01EE200AD0EDDE0AB7EE001A01EE5A
:1040E000200ABDEEC00A10EE100A80490880804800
:1040F00002884FF4FA6140F24C4010F0DBFE7C493C
:1041000008807C4802884FF4FA6140F24C4010F07D
:10411000D1FE78490880784802884FF4FA6140F26D
:104120004C4010F0C7FE74490880704802884FF474
:10413000FA6140F24C4010F0BDFE6C4908806F48B7
:1041400002884FF4FA6140F24C4010F0B3FE6B4924
:1041500008806B4802884FF4FA6140F24C4010F03E
:10416000A9FE674908800DE04FF47A706049088025
:1041700060490880604908805C4908800FF06EFD46
:1041800010F0A4F85A4800885E4908805948008811
:104190005D490880584800885C4908805348008879
:1041A0005B490880554800885A490880544800886F
:1041B000594908804E4802884FF4FA61002010F0F7
:1041C00079FE4B4908804B4802884FF4FA61002081
:1041D00010F070FE47490880474802884FF4FA61A2
:1041E000002010F067FE44490880404802884FF4E0
:1041F000FA61002010F05EFE3C4908803F480288CA
:104200004FF4FA61002010F055FE3C4908803C480C
:1042100002884FF4FA61002010F04CFE3849088003
:104220003E480078022808D10020314908803149F1
:104230000880314908802D4908802C48008818F0F2
:1042400037FA41EC190B9FED360B53EC102B18F09D
:104250007FFA41EC180B18F0E7F984B22648008881
:1042600018F026FA41EC190B9FED2D0B53EC102B97
:1042700018F06EFA41EC180B18F0D6F985B21D480B
:10428000008818F015FA41EC190B9FED250B53EC43
:10429000102B18F05DFA41EC180B18F0C5F986B236
:1042A0001348008818F004FA41EC190B9FED1C0B21
:1042B00053EC102B18F04CFA41EC180B18F0B4F931
:1042C00087B200200E4A12880C4B1B88CDE90120D2
:1042D0000093039023462A463146384609F022FED1
:1042E00005B0BDEC048BF0BDD81B0020880C00206D
:1042F000820C0020840C0020860C00208A0C0020F8
:104300008C0C00208E0C0020900C0020920C0020C1
:10431000940C0020960C0020980C00209E0C00208D
:10432000000000000000F43F0EB5CF480078CF49F0
:104330000870CF480078CF490870CF480078CF493F
:104340000870CF4890ED100AD0ED130A70EE600AA5
:10435000CC48008900EE100AB8EE400AF4EEC00A1C
:10436000F1EE10FA13D80220C34908700FF09EFC3A
:1043700001200421C44A0023B6EE000ACDE9002141
:1043800002904FF4FA726421C048FEF75AFCBC4810
:1043900090ED140AD0ED170A70EE600AB948408912
:1043A00000EE100AB8EE400AF4EEC00AF1EE10FA80
:1043B00002D8B748007818B1B648007801281AD159
:1043C000AD480078022816D00120B34908700220B9
:1043D000A5490870B14908700120A549087000205E
:1043E000A54908700120AE490870A949087000204D
:1043F000A849087049E0A24890ED150AD0ED170AC7
:1044000070EE200A9F48408900EE100AB8EE400A7C
:10441000F4EEC00AF1EE10FA37DB97480078022874
:1044200033D0A048007804282FD001200821964AD4
:104430000023B6EE000ACDE9002102904FF4487245
:1044400064219948FEF7FDFB93480078012812D1BA
:104450000220914908700020874908700120824994
:1044600008708E4908700020904908700120884922
:1044700008700FF01BFC88480078022802D000204A
:104480008349087001207849087085480078012820
:1044900020D1002082490870012085490870854894
:1044A000007850B1844890ED000ADFED840A30EEC8
:1044B000200A834880EDFD0A09E07F4890ED000A5C
:1044C000DFED800A30EE200A7D4880EDFD0A0020F5
:1044D0007D4908807648007801285FD175480078CA
:1044E000E0B9B7EE000A794880ED270AB7EE000A76
:1044F00080ED280AB7EE000AA0F5527080ED270A79
:10450000B7EE000A80ED280AB7EE000AA83880ED61
:10451000270AB7EE000A80ED280A24E09FED6C0A16
:10452000674880EDF90AB7EE000A80EDFA0A9FEDC0
:10453000690A80EDFB0A9FED660A80ED510AB7EE2D
:10454000000A80ED520A9FED630A80ED530A9FED49
:10455000600A80EDA50AB7EE000A80EDA60A9FED7D
:104560005D0A80EDA70A564890EDFD0A5248D0ED4D
:10457000000AB4EEE00AF1EE10FA2BD800204C4904
:1045800008700220544908700120484908705348B7
:1045900090ED020A524880ED000A1BE0B7EE000AD7
:1045A0004A4880ED270AB7EE000A80ED280AB7EEE8
:1045B000000AA0F5527080ED270AB7EE000A80EDE0
:1045C000280AB7EE000AA83880ED270AB7EE000ADD
:1045D00080ED280A3C48008801280DD10FF0B0FC7E
:1045E0004049087008460078022803D10020364967
:1045F000088001E00FF032FB1F4800781F4909785E
:1046000088420AD01C48007808B915F0E3F92A4816
:1046100090ED000A2A4880EDFD0A134800781349FE
:10462000097888420CD010480078022802D1012075
:104630002D4908700C480078012801D12A490870DA
:104640002948007801280ED11348007801280AD0A3
:1046500005480078022803D12448008824490880AE
:104660000020214908700EBD9A0C00209B0C0020F0
:104670009C0C00209D0C00209E0C00209F0C002014
:10468000F81300204442002000500240B0140020E3
:10469000AF0C002077040020AD0C0020A00C0020FF
:1046A000AE0C0020760400209C140020AB0C0020EF
:1046B000A10C00207B040020602A00200000BE42E4
:1046C000D81B00200000B4420A050020B8230020B7
:1046D0006666A63F6666E63FAC0C00201C430020E1
:1046E000AC0D0020A40B0020A60C0020EA04002042
:1046F000A80C002010B52DED028B0021084605F016
:104700002FF859A200211E2004F000FF5948B0F9EB
:104710000000401C00EE100AB8EEC00A0021642020
:1047200017F0BAFA0121002005F01AF852A201216F
:10473000002004F0EBFE524800680A21B0FBF1F2C1
:1047400001FB120000EE100AB8EE400AB0EE408AFB
:104750000121282017F0A0FA4A4800680A21B0FB7E
:10476000F1F201FB120000EE100AB8EE400AB0EEC2
:10477000408A0121502017F08FFA0221002004F016
:10478000EFFF41A20221002004F0C0FE3C48406837
:104790000A21B0FBF1F201FB120000EE100AB8EEA4
:1047A000400AB0EE408A0221282017F075FA3548F9
:1047B00040680A21B0FBF1F201FB120000EE100A82
:1047C000B8EE400AB0EE408A0221502017F064FA99
:1047D0000321002004F0C4FF2DA20321002004F0D7
:1047E00095FE2748D0ED020AF8EE600AB0EE600AA6
:1047F0000321282017F050FA224880680A21B0FBD4
:10480000F1F201FB120000EE100AB8EE400AB0EE21
:10481000408A0321502017F03FFA0421002004F0C1
:104820009FFF1DA20421002004F070FE052100203E
:1048300004F096FF1EA20521002004F067FE062169
:10484000002004F08DFF20A20621002004F05EFE6F
:104850000721002004F084FF20A20721002004F09B
:1048600055FEBDEC028B10BD4163746976617469BD
:104870006F6E0000780400204944313A00000000C7
:1048800018420020244200204944323A000000002F
:104890004944333A00000000506C65617365207430
:1048A000616B652070686F746F206F660000000098
:1048B000746865204F4C454420616E6420636F6EC0
:1048C000746163740000000020205151203A33319C
:1048D000333833373231363500000000202054455C
:1048E0004C3A313536373136373832303500000002
:1048F00010B50446204613F046FD10BD2DE9F041E9
:1049000005460C462146284613F03EFF0646601C2D
:10491000C1B2284613F038FF074647EA062000B226
:10492000BDE8F08110B50220FBF732FD10F064FE07
:104930000B48C46904F00C0080B10A480EF0D0FFA7
:104940000220FBF725FD10F057FE0548C46904F06E
:104950000C0008B1022010BD0120FCE70020FAE79E
:1049600000F00A40005800F02DE9F04107460E46DD
:10497000144600BF2A48856905F001000028F9D1D6
:10498000B00927494860C6F383008860A40835E071
:1049900024480068244908402449884206D1214817
:1049A000006880B210B9304610F006FE1C49386825
:1049B000486100BF1A48856905F001000028F9D157
:1049C00005F4887078B117480068174908401749FE
:1049D000884205D11348006880B208B910F0D0FDB4
:1049E0002846BDE8F0813F1D641E3CB10C4880683C
:1049F00020B90B484068401C09494860002CC7D1C9
:104A000008480068084908400849884205D1054817
:104A1000006880B208B910F0B3FD01488069E0E792
:104A200000F00A4000E00F400000FF700000051099
:104A300010B58B090B4C6360C1F38303A36092082C
:104A40000DE0084B5B690360001D521E3AB1054B37
:104A50009B6823B9034B5B685B1C024C6360002AB4
:104A6000EFD110BD00F00A4010B503480EF002FF70
:104A7000FFF758FF10BD0000005800F02DE9F04F7F
:104A80002DED048B85B04D49888817F011FE41EC5F
:104A9000190B9FED4B0B53EC102B17F059FE41EC0B
:104AA000180B17F0C1FD84B24449888817F000FE46
:104AB00041EC190B9FED420B53EC102B17F048FE05
:104AC00041EC180B17F0B0FD85B23C49888817F00F
:104AD000EFFD41EC190B9FED3A0B53EC102B17F047
:104AE00037FE41EC180B17F09FFD86B233498888DA
:104AF00017F0DEFD41EC190B9FED310B53EC102B41
:104B000017F026FE41EC180B17F08EFD87B22B49EB
:104B1000888817F0CDFD41EC190B9FED290B53EC64
:104B2000102B17F015FE41EC180B17F07DFD1FFA46
:104B300080F82249888817F0BBFD41EC190B9FEDE6
:104B4000200B53EC102B17F003FE41EC180B17F061
:104B50006BFD1FFA80F91949888817F0A9FD41EC0F
:104B6000190B9FED170B53EC102B17F0F1FD41ECD7
:104B7000180B17F059FD1FFA80FA1049888817F0B2
:104B800097FD41EC190B9FED0E0B53EC102B17F01A
:104B9000DFFD41EC180B17F047FD1FFA80FB434681
:104BA0004A4651465846CDE90076CDE9025409F00F
:104BB000B9F905B0BDEC048BBDE8F08F444200208C
:104BC000000000000000F43F00B52DED028B83B023
:104BD0005A480088B0F57A7F2ED15948B0F90000C4
:104BE00017F04FFD41EC180B9FED560B53EC102BBB
:104BF00017F0ACFE20D85548B0F9000017F041FD81
:104C000041EC180B9FED520B53EC102B17F09EFE4E
:104C100012D85148B0F9000017F033FD41EC180BE1
:104C20009FED4E0B53EC102B17F056FD04D84D485A
:104C30000088401C4B49088040480088B0F57A7FC6
:104C400077D13F48B0F9000017F01BFD41EC180B7D
:104C50009FED3C0B53EC102B17F078FE69D83B48C6
:104C6000B0F9000017F00DFD41EC180B9FED380B6B
:104C700053EC102B17F06AFE5BD83748B0F90000F0
:104C800017F0FFFC41EC180B9FED340B53EC102B8D
:104C900017F022FD4DD833480088B0F57A7F48DD03
:104CA00031480088F0BBB7EE000A304880ED000ABA
:104CB00000202C4908802E4908802E492B4890ED71
:104CC000000A542010F002FC002002212A4A034668
:104CD0009FED2A0ACDE9002102904FF4FA7241F2C9
:104CE00088312748FDF7ADFF00200421224A034602
:104CF0009FED220ACDE9002102904FF4FA7241F2B1
:104D000088312048FDF79DFF002008211A4A0346FC
:104D10009FED1A0ACDE9002102904FF4FA7241F298
:104D2000883100E005E01848FDF78BFF0F20174998
:104D3000088003B0BDEC028B00BD0000EA04002037
:104D4000F00400200000000000C06240EE040020DB
:104D50000000000000803640EC040020000000004D
:104D6000008036C022010020FE0400202401002023
:104D70000C050020E03F002000500240CDCC4C3E0E
:104D80009C140020B0140020C414002078040020DB
:104D900006F0CAFA09F05AF802F01CFF642013F07A
:104DA00007FB25499FED250A542010F08FFB42E0B8
:104DB000FFF764FE0021084604F0D2FC0121002028
:104DC00004F0CEFC1EA20021084604F00FFC0221D4
:104DD000002004F0C5FC0321002004F0C1FC1CA24B
:104DE0000221002004F002FC0421002004F0B8FCA1
:104DF0000521002004F0B4FC19A20421002004F0D5
:104E0000F5FB1AA20421502004F080FB1948808889
:104E100000EE900AF8EE600AB0EE600A052150201C
:104E200016F03AFF0621002004F09AFC12A2062197
:104E3000002004F06BFBBBE7E03F00200000000017
:104E4000506C65617365204D6F7665205468720003
:104E5000446F776E205768656E204553430000000D
:104E60004265657020426565700000005468723AC2
:104E700000000000444200205265706F7765722088
:104E80005768656E205365742055700010B52DED80
:104E90000C8B84B00020019002900390EF49A1F1A7
:104EA0000C0004F0F2FFEE4890ED000ADFEDED0A91
:104EB00060EE200A9FEDEC1A80EE810AEB48D0EDFF
:104EC000000AE6480C3890ED031A10EE810AE84813
:104ED00080ED000AE24890ED010ADFEDE20A60EEA3
:104EE000200A9FEDE11A80EE810AE048D0ED010A28
:104EF000DA480C3890ED041A10EE810ADC4880ED97
:104F0000010AD74890ED020ADFEDD60A60EE200ACA
:104F10009FEDD51A80EE810AD448D0ED020ACF4821
:104F20000C3890ED051A10EE810AD14880ED020A86
:104F300090ED000AF0EE408A90ED010AB0EE409A42
:104F400090ED020AB0EE408A69EE090A48EE080ABE
:104F5000B0EE600A13F02AFE20EE280A10EE104A86
:104F6000204617F0EBFE41EC1C0BB0EE4C0AF0EEC5
:104F70006C0A10F0BDFDB0EE40BAF0EE60BA9FEDE5
:104F8000BD0B53EC102B51EC1B0B17F0E1FB41EC6C
:104F90001A0B17F0D3F8B949086068EEA80A48EE72
:104FA000080AB0EE600A13F001FE20EE090A10EEC6
:104FB000104A204617F0C2FE41EC1C0BB0EE4C0A22
:104FC000F0EE6C0A10F094FDB0EE40BAF0EE60BA6C
:104FD0009FEDAB0B53EC102B51EC1B0B17F0B8FBF8
:104FE00041EC1A0B17F0AAF8A7490860084690EDA3
:104FF000000ADFEDA60A20EE200A10EE101A08467D
:1050000017F09CFE41EC1B0BB0EE4B0AF0EE6B0A66
:1050100012F072FAB0EE40AAF0EE60AA51EC1A0B50
:1050200017F08CF800EE100A994880ED000A9648B7
:1050300090ED000ADFED950A20EE200A10EE101A1E
:10504000084617F07BFE41EC1B0BB0EE4B0AF0EE6E
:105050006B0A10F0B1FFB0EE40AAF0EE60AA51EC7E
:105060001A0B17F06BF800EE100A8A4880ED000A60
:10507000824890ED000ADFED850A20EE200A10EE4E
:10508000101A084617F05AFE41EC1B0BB0EE4B0A03
:10509000F0EE6B0A12F030FAB0EE40AAF0EE60AA21
:1050A00051EC1A0B17F04AF800EE100A7A4880ED1E
:1050B000000A724890ED000ADFED740A20EE200A23
:1050C00010EE101A084617F039FE41EC1B0BB0EE3B
:1050D0004B0AF0EE6B0A10F06FFFB0EE40AAF0EE54
:1050E00060AA51EC1A0B17F029F800EE100A6B4871
:1050F00080ED000A08E0052013F05AF957480C30FB
:10510000FEF7D0FA66490870654800780028F2D0AA
:1051100052480C3890ED060A6248D0ED000A30EE95
:10512000600A8DED010A4D480C3890ED070A5D4884
:10513000D0ED010A30EE600A8DED020A47480C38C6
:1051400090ED080A5748D0ED020A30EE600A8DED66
:10515000030A9DED010A5148D0ED000A20EE200A15
:10516000DDED030A4C4890ED001A00EE810A4E482E
:1051700080ED000A9DED010A4548D0ED000A20EEC1
:10518000200A4548D0ED000A20EE200ADDED020A93
:10519000404890ED001A00EE810ADDED030A3C481C
:1051A00090ED001A60EE810A3C4890ED001A00EE86
:1051B000C10A3D4880ED010A90ED010A10EE101A77
:1051C000084617F0BBFD41EC1C0B374890ED000A78
:1051D00010EE101A084617F0B1FD41EC1D0BB0EEB1
:1051E0004C1AF0EE6C1AB0EE4D0AF0EE6D0A10F0AB
:1051F000EBFDB0EE40BAF0EE60BA9FED2C0B53EC35
:10520000102B51EC1B0B17F0A3FA41EC1A0B16F004
:1052100095FF28490860194890ED000ADFED1B0A48
:1052200020EE200A244880ED000A174890ED000A7D
:10523000DFED160A20EE200A204880ED000A08461D
:1052400090ED000ADFED110A20EE200A1C4880EDE7
:10525000000A04B0BDEC0C8B10BD000070380020BB
:10526000284A0020000000450AE81C41B80E002032
:10527000704A00206666666666A64CC0A80E0020CE
:105280006666666666A64C40A40E002035FA8E3C23
:10529000CC0E0020D80E0020D00E0020DC0E002006
:1052A000E40E0020E81A00205404002000000060F2
:1052B000E3A54C40AC0E0020EC0E0020E80E0020D0
:1052C000F00E002000B599B00020129013901490B9
:1052D000FE4890ED000ADFEDFE0A60EE200A9FED29
:1052E000FD1A80EE810AFC48D0ED000AFB4890EDE3
:1052F000031A10EE810AFA4880ED000AF34890ED97
:10530000010ADFEDF30A60EE200A9FEDF21A80EE4B
:10531000810AF148D0ED010AF04890ED041A10EE30
:10532000810AEF4880ED010AE84890ED020ADFEDBE
:10533000E80A60EE200A9FEDE71A80EE810AE6484F
:10534000D0ED020AE54890ED051A10EE810AE44816
:1053500080ED020A90ED000A8DED170A90ED010A2A
:105360008DED160A90ED020A8DED150A9DED160AD7
:1053700020EE000ADDED150A00EEA00A8DED0A0A06
:105380009DED0A0A13F012FCDDED170A20EE200A4B
:105390008DED0B0A0B9817F0D1FCCDE90C019DEDBA
:1053A0000C0B10F0A5FB8DED0E0B9FEDCE0B53EC0F
:1053B000102B9DED0E0B51EC100B17F0C9F9CDE938
:1053C00010019DED100B51EC100B16F0B7FEC74904
:1053D00008609DED170A20EE000ADDED150A00EECB
:1053E000A00A8DED0A0A9DED0A0A13F0DFFBDDED40
:1053F000160A20EE200A8DED0B0A0B9817F09EFC82
:10540000CDE90C019DED0C0B10F072FB8DED0E0B38
:105410009FEDB70B53EC102B9DED0E0B51EC100BC9
:1054200017F096F9CDE910019DED100B51EC100B22
:1054300016F084FEB0490860084690ED000ADFEDE2
:10544000AF0A20EE200A8DED0D0A0D9817F076FCBC
:10545000CDE90E019DED0E0B12F04EF88DED100B07
:105460009DED100B51EC100B16F068FE00EE100ACB
:10547000A34880ED000AA04890ED000ADFED9F0AE6
:1054800020EE200A8DED0D0A0D9817F057FCCDE99E
:105490000E019DED0E0B10F08FFD8DED100B9DEDAF
:1054A000100B51EC100B16F049FE00EE100A954857
:1054B00080ED000A8D4890ED000ADFED900A20EEA5
:1054C000200A8DED0D0A0D9817F038FCCDE90E017C
:1054D0009DED0E0B12F010F88DED100B9DED100BE5
:1054E00051EC100B16F02AFE00EE100A864880EDF3
:1054F000000A7E48D0ED000A9FED800A20EE800A67
:105500008DED0D0A0D9817F019FCCDE90E019DEDFA
:105510000E0B10F051FD8DED100B9DED100B51ECAD
:10552000100B16F00BFE00EE100A784880ED000A12
:105530006A4890ED060A7648D0ED000A30EE600A1F
:105540008DED120A654890ED070A7148D0ED010A09
:1055500030EE600A8DED130A604890ED080A6C4841
:10556000D0ED020A30EE600A8DED140ADDED120A6C
:10557000664890ED000A20EE800ADDED140A6248CC
:1055800090ED001A00EE810A624880ED000A9DED60
:10559000120A5B48D0ED000A20EE200A5A48D0EDEE
:1055A000000A20EE200A9DED131A5648D0ED000A9D
:1055B00001EE200ADDED140A514890ED001A60EE6C
:1055C000810A524890ED001A00EEC10A514880ED60
:1055D000010A4068099017F0B1FBCDE90C014D4874
:1055E0000068099017F0AAFBCDE90A019DED0C1B9C
:1055F0009DED0A0B10F0E8FB8DED0E0B9FED460BB9
:1056000053EC102B9DED0E0B51EC100B17F0A0F886
:10561000CDE910019DED100B51EC100B16F08EFD35
:105620003F490860314890ED000ADFED340A20EE72
:10563000200A3C4880ED000A2F4890ED000ADFED7B
:105640002F0A20EE200A384880ED000A084690ED27
:10565000000ADFED2A0A20EE200A344880ED000A15
:105660003148D0ED000AB0EE001A80EE810A8DEDCF
:10567000050A059817F062FBCDE906019DED060BC2
:1056800011F03AFF8DED0A0B2648D0ED000AB0EE7E
:10569000001A80EE810A8DED010A019817F04EFB89
:1056A000CDE902019DED020B11F026FF8DED060BF9
:1056B0001E4890ED001AF0EE000A81EE200A8DEDF2
:1056C000010A019817F03AFB32E00000284A002056
:1056D000000000450AE81C41B80E00206438002094
:1056E000704A00206666666666A64CC0A80E00205A
:1056F0006666666666A64C40A40E002035FA8E3CAF
:10570000CC0E0020D80E0020D00E0020DC0E002091
:10571000E81A00205404002000000060E3A54C407B
:10572000AC0E0020EC0E0020E80E0020F00E002051
:10573000CDE902019DED020B11F0DEFE8DED040BB3
:105740009DED060B53EC102B9DED040B51EC100B53
:1057500016F0FEFFCDE908019DED0A0B53EC102B6E
:105760009DED080B51EC100B16F0F2FFCDE90E0188
:10577000FE48D0ED000AB0EE001A80EE810A8DEDF1
:10578000050A059817F0DAFACDE906019DED060B3A
:1057900010F012FC8DED0A0BF548D0ED000AB0EECA
:1057A000001A80EE810A8DED010A019817F0C6FA01
:1057B000CDE902019DED020B10F0FEFB8DED060B15
:1057C000EC4890ED001AF0EE000A81EE200A8DED13
:1057D000010A019817F0B2FACDE902019DED020B22
:1057E00010F0EAFB8DED040B9DED060B53EC102B36
:1057F0009DED040B51EC100B16F0AAFFCDE908014A
:105800009DED0A0B53EC102B9DED080B51EC100B8A
:1058100016F09EFFCDE90C019DED0E0B53EC102B05
:105820009DED0C0B51EC100B16F0BAFCCDE91001FC
:105830009DED100B51EC100B16F080FCCE4908606A
:10584000CA48D0ED000AB0EE001A80EE810A8DED54
:10585000050A059817F072FACDE906019DED060BD1
:1058600010F0AAFB8DED0A0BC148D0ED000AB0EE96
:10587000001A80EE810A8DED010A019817F05EFA98
:10588000CDE902019DED020B11F036FE8DED060B08
:10589000B848D0ED000AB0EE001A80EE810A8DED16
:1058A000010A019817F04AFACDE902019DED020BB9
:1058B00011F022FE8DED040B9DED060B53EC102B29
:1058C0009DED040B51EC100B16F042FFCDE90801E1
:1058D0009DED0A0B53EC102B9DED080B51EC100BBA
:1058E00016F036FFCDE90E01A048D0ED000AB0EE6B
:1058F000001A80EE810A8DED050A059817F01EFA50
:10590000CDE906019DED060B11F0F6FD8DED0A0BBC
:10591000974890ED001AF0EE000A81EE200A8DED16
:10592000010A019817F00AFACDE902019DED020B78
:1059300010F042FB8DED060B8E48D0ED000AB0EE64
:10594000001A80EE810A8DED010A019817F0F6F930
:10595000CDE902019DED020B10F02EFB8DED040B45
:105960009DED060B53EC102B9DED040B51EC100B31
:1059700016F0EEFECDE908019DED0A0B53EC102B5D
:105980009DED080B51EC100B16F0E2FECDE90C0179
:105990009DED0E0B53EC102B9DED0C0B51EC100BF1
:1059A00017F0E2F8CDE910019DED100B51EC100B52
:1059B00016F0C4FB714908606C48D0ED000AB0EEE7
:1059C000001A80EE810A8DED050A059817F0B6F9E8
:1059D000CDE906019DED060B11F08EFD8DED0A0B54
:1059E0006348D0ED000AB0EE001A80EE810A8DED1A
:1059F000010A019817F0A2F9CDE902019DED020B11
:105A000010F0DAFA8DED060B5A48D0ED000AB0EE30
:105A1000001A80EE810A8DED010A019817F08EF9C7
:105A2000CDE902019DED020B11F066FD8DED040B39
:105A30009DED060B53EC102B9DED040B51EC100B60
:105A400016F086FECDE908019DED0A0B53EC102BF4
:105A50009DED080B51EC100B16F07AFECDE90E010E
:105A60004248D0ED000AB0EE001A80EE810A8DEDBA
:105A7000050A059817F062F9CDE906019DED060BC0
:105A800010F09AFA8DED0A0B3948D0ED000AB0EE0D
:105A9000001A80EE810A8DED010A019817F04EF987
:105AA000CDE902019DED020B11F026FD8DED060BF7
:105AB0003048D0ED000AB0EE001A80EE810A8DED7C
:105AC000010A019817F03AF9CDE902019DED020BA8
:105AD00010F072FA8DED040B9DED060B53EC102BBC
